:1000000071C00000D0C1000084C0000082C00000A8
:1000100080C000007EC000007CC000007AC00000EC
:1000200078C0000076C0000074C0000072C00000FC
:1000300070C000006EC000006CC000006AC000000C
:1000400068C0000066C0000064C0000062C000001C
:1000500060C000005EC000005CC000005AC000002C
:1000600058C0000056C0000054C0000052C000003C
:1000700050C000004EC000004CC000004AC000004C
:1000800048C0000046C0000044C0000042C000005C
:1000900040C000003EC000003CC000003AC000006C
:1000A00038C0000036C0000034C0000032C000007C
:1000B00030C000002EC000002CC000002AC000008C
:1000C00028C0000026C0000024C0000022C000009C
:1000D00020C000001EC000001CC000001AC00000AC
:1000E00018C0000011241FBECFEFD1E2DEBFCDBF8C
:1000F00000E00CBF12E0A0E0B2E0EEE6F4E000E0C9
:100100000BBF02C007900D92A233B107D9F7C3D03D
:10011000ACC176CFA59A83ED90E30197F1F700C0CB
:100120000000A59883ED90E30197F1F700C000006F
:100130000895A39AA49880930201ECCF0895A39800
:10014000A49880930201E6CF0895EF92FF920F9357
:100150001F93CF93DF93CDB7DEB72B970FB6F894ED
:10016000DEBF0FBECDBF81E0EADF8BE0E0E0F2E072
:10017000DE01119601900D928A95E1F78E010F5FD5
:100180001F4F7E018DE0E80EF11CF80181918F0177
:10019000D0DF0E151F05C9F72B960FB6F894DEBFFA
:1001A0000FBECDBFDF91CF911F910F91FF90EF90C8
:1001B0000895EF92FF920F931F93CF93DF93CDB7E4
:1001C000DEB728970FB6F894DEBF0FBECDBF81E033
:1001D000B6DF88E0EBE0F2E0DE01119601900D92CF
:1001E0008A95E1F78E010F5F1F4F7E018AE0E80ECE
:1001F000F11CF80181918F019CDF0E151F05C9F7D5
:1002000028960FB6F894DEBF0FBECDBFDF91CF9119
:100210001F910F91FF90EF900895CF92DF92EF9290
:10022000FF920F931F93CF93DF93CDB7DEB72F9736
:100230000FB6F894DEBF0FBECDBF8FE0E3E1F2E072
:10024000DE01119601900D928A95E1F7CE0101969B
:100250007C0100E010E06C01F70181917F0169DF12
:100260000F5F1F4FF60101900020E9F73197EC195D
:10027000FD09E017F10780F72F960FB6F894DEBF5F
:100280000FBECDBFDF91CF911F910F91FF90EF90E7
:10029000DF90CF900895CF93DF93CDB7DEB72A9745
:1002A0000FB6F894DEBF0FBECDBF1AB88FEF83BB79
:1002B00097E09093040180BBE89A78948FE03FDF49
:1002C0008FE33DDF0F2EF5E0EF2EFF24F394F02DAA
:1002D0000F2EFBEFBF2EF02D03E011E00F2EFDEFF0
:1002E000CF2EF02D0F2EFEEFDF2EF02DF701B08276
:1002F000F801808183FD0CC081E31BDF41E050E009
:1003000061E370E0CE010196A0D0898112DF0DC0BB
:10031000F801808184FD03C084E30BDF06C0F8018F
:10032000808185FD02C087E304DFF701C082F80108
:10033000808183FD03C082E3FCDE0DC0F801808173
:1003400084FD03C085E3F5DE06C0F801808185FDEC
:1003500002C088E3EEDEF701D082F801808183FDE0
:1003600003C083E3E6DE18C0F801808184FD03C08A
:1003700086E3DFDE11C0F801808185FD03C089E3DB
:10038000D8DE0AC0F801808186FD06C081E0D7DE94
:1003900083E2CFDE8981CDDE87EA91E60197F1F72E
:1003A00000C00000A3CF1F920F920FB60F9211242E
:1003B0000BB60F922F933F934F935F936F937F935F
:1003C0008F939F93AF93BF93EF93FF9394B381E089
:1003D000892784BBA19A2FE788E391E021508040D0
:1003E0009040E1F700C00000A1988FE0A8DEADDEEC
:1003F0002FE789EA93E0215080409040E1F700C068
:1004000000008FE09CDED5DE2FE38DE093E02150ED
:1004100080409040E1F700C0000081E090DEFDDE0A
:1004200080EC8DDEFF91EF91BF91AF919F918F9105
:100430007F916F915F914F913F912F910F900BBEE4
:100440000F900FBE0F901F901895FB01DC010D90CF
:100450000020E9F711974150504028F0019000200A
:0E0460000D92C9F708951C920895F894FFCFED
:10046E004341522041542047415445524547495338
:10047E0054455242656C6F77203130207965617238
:10048E00730041626F766520313020796561727339
:02049E0000005C
:00000001FF
